:100000001BC035C034C033C032C059C230C02FC04D
:100010002EC05FC22CC02BC02AC029C019C227C065
:1000200026C025C024C023C001020305070A0F14FF
:10003000191E23282D32373C11241FBECFEFD2E0EA
:10004000DEBFCDBF11E0A0E0B1E0EEEBF5E002C015
:1000500005900D92A231B107D9F721E0A2E1B1E0FC
:1000600001C01D92AB31B207E1F73DD2A6C2C8CFA5
:10007000282F811103C0409A419802C0419A4098AC
:10008000E6B1EC73F0E0F595E795F595E795E85D59
:10009000FF4FE4916E2F70E080E090E0211102C0EC
:1000A0004098089541980895882371F0109217019F
:1000B000109218011092190110921A011092160153
:1000C00060E070E0CB010895609117017091180114
:1000D0008091190190911A01089525B1811108C0EC
:1000E00081E090E001C0880F6A95EAF7822B08C092
:1000F00081E090E001C0880F6A95EAF7809582233D
:1001000085B90895FC0193819170611102C021E0CD
:100110009227348125B1992341F081E090E001C01C
:10012000880F3A95EAF7822B08C081E090E001C081
:10013000880F3A95EAF78095822385B9089589B1A9
:100140008F7DE0E0F1E08183818181708083818116
:10015000AAE0B1E091E08695817089278C93818136
:10016000E3E0F1E086FB882780F99827908389B146
:100170008295817013968C9389B1881F8827881F78
:1001800083830895CF92DF92EF92FF92CF93809175
:100190000A018823C9F180910B01882379F060E07E
:1001A0008AE091E0AFDF60E083E091E0ABDF709840
:1001B000719810920B011092040121C061E08AE055
:1001C00091E0A0DFC1E0C0930B012FEF82E597E043
:1001D000215080409040E1F700C0000061E083E0E2
:1001E00091E090DFC09304012FEF80E792E021506F
:1001F00080409040E1F700C00000709A719A4A9BDD
:100200005CC04B9B5AC05EC081E080930201709A33
:100210002FEF84E39CE0215080409040E1F700C044
:10022000000061E08AE091E06DDF2FEF82E597E06A
:10023000215080409040E1F700C0000061E083E081
:1002400091E060DF2FEF80E792E021508040904006
:10025000E1F700C00000719A81E026DF80E024DF32
:100260006B017C0180E004DF28EE33E040E050E0E9
:100270008BD16C157D058E059F0568F460E08AE0E2
:1002800091E040DF60E083E091E03CDF709871989E
:100290001092020117C0A89580910A018111EECF3A
:1002A0004A9B0DC04B9B0BC080910001882331F30A
:1002B00080910A01882391F2E1CFA895A0CF81E037
:1002C000F3DEF2CFCF91FF90EF90DF90CF900895C3
:1002D000FC01208130E0062E02C0359527950A9456
:1002E000E2F720FD17C0FFE728E331E0F15020409E
:1002F0003040E1F700C00000FC01808190E002C0C6
:10030000959587956A95E2F781709927F1E08F2797
:100310008170089580E00895FC0123B130E00480ED
:1003200002C0359527950A94E2F7217081E0938108
:10033000291380E008951F93CF93DF93811106C0A6
:1003400060E08AE091E0DEDE709839C061E08AE02A
:1003500091E0D8DED9B181E0A7DEC0E011E080E015
:10036000A3DE653671058105910568F4809105016C
:10037000811107C0C11105C0C9B1C3FBCC27C0F9A9
:10038000C127A895ECCF709ACC23C9F0D3FF17C032
:1003900080910301882371F08091040181110FC0C5
:1003A00083E091E0B9DFC1E0C8278C2F0DD0C09366
:1003B000040105C080910501811101C005D0A895F7
:1003C000DF91CF911F910895CF93DF93811106C0E4
:1003D00060E083E091E096DE719836C061E083E0F2
:1003E00091E090DED9B181E05FDEC0E080E05CDECC
:1003F000653671058105910548F44A9905C08091DB
:100400000C01811101C0C1E0A895F0CF719ACC23F5
:10041000D9F0D2FF19C080910A01882371F0809130
:100420000B01811111C08AE091E076DFC1E0C8279D
:100430008C2F81DFC0930B0107C090910C0181E0EC
:10044000892780930C0177DFA895DF91CF910895DC
:100450001F920F920FB60F9211242F933F938F93F9
:100460009F93AF93BF938091170190911801A09132
:100470001901B0911A013091160126E0230F2D3792
:1004800020F40296A11DB11D05C029E8230F039693
:10049000A11DB11D2093160180931701909318019F
:1004A000A0931901B0931A01BF91AF919F918F91C1
:1004B0003F912F910F900FBE0F901F9018951F9294
:1004C0000F920FB60F9211240F900FBE0F901F9036
:1004D00018951F920F920FB60F9211240F900FBE16
:1004E0000F901F90189593E094B98DB183608DB9EA
:1004F00097B9A8959FE088E10FB6F894A8958093E6
:1005000060000FBE909360008091680084608093CB
:10051000680083ED80936D0085B5836085BD809113
:100520006E00816080936E0080918100886080936E
:10053000810080916F00826080936F0078948AE1DF
:1005400096E0909389008093880080918100836079
:100550008093810060910E0180910D01BEDD60915C
:10056000070180910601B9DD63E089E290E0B0DE29
:10057000811108C062E089E290E0AADE811102C028
:10058000A895F2CFFFDDFCCFEE27FF27AA27BB27D8
:1005900008C0A20FB31FE41FF51F220F331F441F13
:1005A000551F969587957795679598F37040A9F7AD
:0E05B000009799F7BD01CF010895F894FFCF91
:1005BE0001000000000001012500000000010025DF
:0205CE0000002B
:00000001FF
